:020000040800F2
:10000000380C0020A5020008AB4300081933000893
:10001000A9430008631B00086B53000800000000A0
:10002000000000000000000000000000D1470008B0
:10003000651B00080000000021470008D3470008A6
:10004000BF020008BF020008BF020008BF0200088C
:10005000BF020008BF020008BF020008BF0200087C
:10006000BF020008BF020008BF020008BF0200086C
:10007000BF020008BF020008BF020008BF0200085C
:10008000BF020008BF020008BF020008BF0200084C
:10009000FD520008BF020008BF020008BF020008AE
:1000A000BF020008BF020008BF020008BF0200082C
:1000B000BF020008BF020008BF0200084D3300085D
:1000C0001D330008BF020008BF020008BF0200087D
:1000D000BF020008BF020008BF0200080D4E000862
:1000E000BF020008BF020008BF020008BF020008EC
:1000F000BF020008BF020008BF020008BF020008DC
:10010000BF0200080000000000000000BF0200085D
:10011000BF020008BF02000825490008BF0200080E
:10012000BF020008BF020008BF020008BF020008AB
:10013000BF020008BF02000800000000000000002D
:10014000BF020008BF020008BF0200080000000054
:10015000000000000000000000000000000000009F
:10016000BF020008BF020008BF020008BF0200086B
:10017000BF020008BF020008BF020008BF0200085B
:10018000BF020008BF0200080000000000000000DD
:10019000BF02000800F002F800F075F80AA090E82D
:1001A000000C82448344AAF10107DA4501D100F032
:1001B0006AF8AFF2090EBAE80F0013F0010F18BF8A
:1001C000FB1A43F001031847D8620000F8620000F0
:1001D000103A24BF78C878C1FAD8520724BF30C873
:1001E00030C144BF04680C60704700000023002445
:1001F00000250026103A28BF78C1FBD8520728BF37
:1002000030C148BF0B607047662905F0ED8765294E
:1002100005F0EA87672905F0E787612905F0E68799
:10022000692900F0D580642900F0D280752900F09A
:10023000CF806F2900F06681782900F08B810368F8
:10024000DB0928BF41F08001632900F04287732950
:1002500000F04787E32900F05287002070471FB560
:1002600005F0BDFF00F080FF04000020002105F034
:1002700029FF401C60600020002105F00DFFE060B8
:100280001FBD10B510BD01F06FF81146FFF7E7FF75
:1002900005F0EAFC01F08DF803B4FFF7F2FF03BCB0
:1002A00001F090F80948804709480047FEE7FEE75B
:1002B000FEE7FEE7FEE7FEE7FEE7FEE7FEE7FEE716
:1002C00004480549054A064B7047000015490008D7
:1002D0009501000838060020380C0020380800205E
:1002E000380800200FB41CB5074B06AA7B446946AA
:1002F0000090059800F0CBFE0020694600F0DAFE81
:100300001CBC5DF814FB0000C50D000070B5044670
:1003100085690068C10601D5302600E02026C007A7
:1003200007D070BDD4E9012130469047206A401CB7
:1003300020626D1EF6D570BD70B5044685690078E3
:10034000C00707D170BDD4E9012120209047206A61
:10035000401C20626D1EF6D570BD09684A0501D5A6
:1003600040B27047C905FCD500B2704709684A051C
:1003700001D5C0B27047C905FCD580B2704770B5D1
:100380000C460546012A05D02878800600D5EA6982
:10039000002302E0012305E05B1C934202D2E05CF3
:1003A0000028F9D1A869E618C01AA861286A18447B
:1003B00028622846FFF7AAFF04E0D5E9012114F8D6
:1003C000010B9047B442F8D32846FFF7B5FF70BD44
:1003D0002DE9F0410646002410687529314616A51E
:1003E00010D0FFF7BAFF002802DA404213A507E059
:1003F00031688A0701D512A502E0490704D511A585
:10040000012401E0FFF7B2FF00210A2206F12407D0
:1004100009E0B0FBF2FCB0FBF2F302FB1C00303051
:1004200078541846491C0028F3D123462A46304602
:10043000BDE8F04100F03FBA000000002D000000D0
:100440002B000000200000002DE9FF5F15468A46C2
:100450000446DFF8AC80F8440027D8E900103E4697
:10046000CDE9001010E03AF816106A4602A800F034
:1004700052FE411C07D02178890603D5E26939185C
:1004800091420DD80744761C2078800602D5E06999
:10049000B84205DDAE42E6DB3AF816000028E2D1AC
:1004A000A069C01BA0612046FFF730FFD8E900100B
:1004B000CDE90010002017E03AF818106A4602A8AB
:1004C00000F029FEB0F1FF3F81460BD000250DF171
:1004D000080B05E0D4E901211BF8050090476D1CCD
:1004E0004D45F7D308F10100B0428046E4DB206AB5
:1004F000384420622046FFF71FFFBDE8FF9F000041
:10050000F25E000070B5044621461068FFF72EFF2A
:10051000002104F1240505E000F007023032C00894
:100520006A54491C0028F7D12068002307A2050758
:1005300007D5800600D421B1E069012304A2401E42
:10054000E0612046BDE8704000F0B5B90000000051
:100550003000000070B504460D4621461068FFF7D4
:1005600005FF2188090502D50F4A7A4402E00E4AA8
:100570007A440E32002104F1240305E000F00F0656
:100580000009965D5E54491C0028F7D120780023AD
:10059000000704D5702D02D009B102231132204684
:1005A000BDE8704000F087B9E65D00002DE9F05F1E
:1005B000894604464FF0000ADFF874B1FB44C0F8E6
:1005C00020A02046E1688847002874D0252806D05E
:1005D000D4E901219047206A401C2062F1E70026FF
:1005E0005F462046E16888472028054607DB312D15
:1005F00005D2781910F8200C08B10643F1E7B007CE
:1006000001D526F00406C4F81CA00027C4F818A0E1
:100610002A2D09D0284604F0EFFE38B304EB8708F2
:10062000303DC8F8185019E059F8041B204604EB77
:1006300087029161E1688847012F054618D1E0697A
:10064000002820DA26F020061DE0D8F8180000EB7C
:10065000800005EB40003038C8F818002046E168FB
:100660008847054604F0C8FE0028EED1012F0AD0C5
:100670002E2D08D12046E16888477F1C0546022FB1
:1006800046F02006C4DBA069002803DA404246F0A9
:100690000106A061F00701D026F010066C2D0BD0EA
:1006A000682D09D04C2D39D06A2D35D0742D35D018
:1006B0007A2D33D016E038E0E1682F46204688478F
:1006C000B842054609D16C2F26D04FF48060E1680E
:1006D000064320468847054604E06C2F1AD04FF4A5
:1006E000807006430DB3A5F14100192802D82035CA
:1006F00046F400664A462946204626604E46FFF7E5
:1007000083FD80B101280BD0F61D26F0070000F113
:10071000080956E74020E4E78020D8E70020D6E724
:1007200006F104094DE7284652E7206ABDE8F09F2C
:10073000BC5D000040EA0103024630B59B0710D1C2
:100740004FF0013400E008C208C91D1B9D4315EAA3
:10075000C41FF8D013F0FF0102F8011B0DD01B0AD3
:10076000F8E711F8013B002B02F8013B05D011F826
:10077000013B002B02F8013BF3D130BD10B5203A0C
:10078000C0F00B80B1E81850203AA0E81850B1E84A
:100790001850A0E81850BFF4F5AF5FEA027C24BF00
:1007A000B1E81850A0E8185044BF18C918C0BDE8F7
:1007B00010405FEA827C24BF51F8043B40F8043BC0
:1007C00008BF7047D20728BF31F8023B48BF11F875
:1007D000012B28BF20F8023B48BF00F8012B7047CF
:1007E0004FF0000200B5134694469646203922BFCA
:1007F000A0E80C50A0E80C50B1F12001BFF4F7AF15
:10080000090728BFA0E80C5048BF0CC05DF804EBF6
:10081000890028BF40F8042B08BF704748BF20F864
:10082000022B11F0804F18BF00F8012B7047000019
:100830004FF0013C50F8042B51F8043B9A4221D16F
:10084000A2EB0C03934313EACC1317D150F8042BFB
:1008500051F8043B9A4215D1A2EB0C03934313EADF
:10086000CC130BD150F8042B51F8043B9A4209D118
:10087000A2EB0C03934313EACC13DBD04FF0000040
:10088000704700BFD01A01BAB1FA81F101F0180126
:1008900022FA01F0CB40C1F12001DBB2C0B2C01A94
:1008A0002CFA01F3D11A914311EAC311E6D1704732
:1008B0007047704770472DE9F0470D4699469246BC
:1008C000044600F124080168880604D5E06921F097
:1008D0001001216000E00120A84201DD471B00E07B
:1008E0000027A1697A1902EB0900081AA061207893
:1008F000C00602D42046FFF709FD002608E0D4E92F
:1009000001211AF806009047206A401C761C2062DC
:100910004E45F4DB2078C0060AD52046FFF7F6FCEA
:1009200006E0D4E9012130209047206A401C206273
:10093000381EA7F10107F4DC07E0D4E9012118F81B
:1009400005009047206A401C2062281EA5F1010581
:10095000F3DC2046FFF7F0FC2078000602D50220E9
:10096000BDE8F0870120FBE770472DE9FF4F0C46FB
:100970001E464FF0FF378BB0D2E90001DDF86080F2
:100980000A908A46C1F30A5505B93D46002108463A
:100990004FF00000BAF1000F00F4400005DA00EB60
:1009A00080004FF4400101EA50004FEA9059B9F13C
:1009B000010F00DDB9460A9850EA4A000ED044F60D
:1009C0001050A5F2FF3545432F14B8F1000F1ED08B
:1009D0007542291E1EDDC9F100021CE0B8F1010FAD
:1009E0004FF0000001D0302103E0F24305E0215434
:1009F000401CB042FBDB30460022002121540B9901
:100A0000C1F80880C1E900200FB0BDE8F08FBD1B20
:100A10006D1CDEE74A4600DA694206A800F02EFCAB
:100A200006AB93E8070003AB83E8070050460A993A
:100A300000F0CFFC8DE80700A0F500501F380090B3
:100A40000398002D0ADD42F21F014A4608440023A4
:100A500003A90390684600F038FF09E0A0F50050B4
:100A60004A461F38002303A90390684600F042FF5E
:100A70008DE807000004000C03D04FF0FF30410860
:100A800000E01046B8F1000F03D000220092154696
:100A90001EE0751E05D400F06BFB303262556D1EF2
:100AA000F9D5B3460122084302D000227F1C04E09E
:100AB0002078302801D100227F1E002A099784D097
:100AC0001DE0112D07DA00F053FB303262556D1C2A
:100AD00050EA0102F5D1084302D00098C8B10EE0F7
:100AE0000021681E05E0235C625C63542254401EB2
:100AF000491C8142F7DBAB46A81B401E0990002031
:100B000004F80B000B98099AC0F80880C0E9002B84
:100B10007AE711264FF0000857E72DE9F04F884695
:100B20000446D21D22F0070191B0D1E90001CDE9C0
:100B30000A0104F01BFC02460B98C00F01D02D20C7
:100B400007E02068810701D52B2002E0202101EA7F
:100B5000C000032A099001D0072A05DB034641465D
:100B6000204600F04BFB0BE12078800601D5E069C0
:100B700000E00620B8F1650F814606D0B8F1660F97
:100B800018D0B8F1670F70D131E00020B9F1110F22
:100B9000009001DB112301E009F101030AAA01A978
:100BA0000CA8FFF7E2FEDDE90C70002609F1010553
:100BB000834647E001204B4600904FF000470AAAC9
:100BC00001A90CA8FFF7D1FEDDE90DB00C995D4637
:100BD000002610B909F101000D18B9EB050003D486
:100BE000C0F1FF3609F10105A5EB09002BE0B9F1D1
:100BF000010F01DA4FF001090020B9F1110F009047
:100C0000484601DD112300E003460AAA01A90CA809
:100C1000FFF7ABFEDDE90C704D46002683462078D9
:100C200000070AD4AB4500DA5D4601A8012D04DDBA
:100C3000411911F8011C302907D04F4502DA17F18C
:100C4000040F04DA012082460FE06D1EEEE7002F4C
:100C500002DCED1B3E4403E0781CA84200DD7D1C55
:100C6000B81B00F1010A4FF000472078000703D4B9
:100C7000AA4501DB4FF0FF3A0021B7F1004F0DF11B
:100C800043088DF8431024D002202B23002F01DAD3
:100C90007F422D230A21021EA0F1010000DC5FB17A
:100CA00097FBF1FC97FBF1F201FB1C7C17460CF162
:100CB000300C08F801CDEEE7A8F10100037021889F
:100CC000090501D5452100E06521A0F1010800F8E2
:100CD000011C09980FA9A1EB0807FF1D00B1012015
:100CE000411901EBEA70A1693844081A401EA0615D
:100CF0002078C00602D42046FFF708FB099828B1E7
:100D0000D4E901219047206A401C20622078C00667
:100D100022D52046FFF7FAFA1EE0002E04DBB34589
:100D200002DD01A8805D00E03020D4E90121904778
:100D3000206A401C2062761CAAF101005FEA000ACA
:100D40000AD100F011FAC0680168405CD4E90121C1
:100D50009047206A401C2062281EA5F10105DCDCBA
:100D600007E0D4E9012118F8010B9047206A401CE4
:100D70002062381EA7F10107F3DC2046FFF7DCFAFA
:100D8000032011B041E600002DE9F04F04460D4666
:100D9000D21D22F0070089B0D0E9009748463946B5
:100DA00004F0E4FA0246F80F01D02D2307E0206892
:100DB000810701D52B2302E0202101EAC0038DF831
:100DC00020300BB1012000E00020032A824601D030
:100DD000072A04DB2946204600F010FA3FE120787C
:100DE000800601D40D2500E0E569C7F30A560D2DF4
:100DF00049DA00214FEA175B08464FF00000002F48
:100E000000F4400007DA00EB80004FF4400100EBF3
:100E1000D07001EA60008115012901DD4FF0FF313A
:100E200000224FEA850CBCF1180F06D31346ACF133
:100E300018004FF08052C24003E04FF4801323FAB1
:100E40000CF30CF10C0CBCF1200F04D3ACF1200C12
:100E500009FA0CF001E007FA0CF000294FF0004805
:100E600001DD18B90FE00ED140450CD319EB020992
:100E70005F4121B9404502D19F4329EA0209BBEBFA
:100E8000175F00D0761C2088000502D57B48784487
:100E900002E07A487844193808AA302302F80A3068
:100EA000037C0AF10101002E0AF1020A53546A463A
:100EB00002DC4FF0300101E04FF031014FF001084A
:100EC0008DF8001002D0A6F2FF3603E059EA470180
:100ED00000D06B4E002D02DC2178090704D54FF0BD
:100EE00002082E218DF80110C44600210BE0C7F343
:100EF00003433F01C35C491C6D1E02F808300529FD
:100F000008F1010801DA002DF1DC00210CE000EB12
:100F10001973491C1B786D1E082902F808304FEA26
:100F2000091908F1010801DA002DF0DC21688B06AF
:100F300002D516E0A8F10108E04505DD02EB080343
:100F400013F8013C302BF5D0B8F1000F09DD02EBAE
:100F5000080313F8013C2E2B03D1090701D4A8F193
:100F60000108002D05DD3E2102F808106D1E08F174
:100F70000108407C002E02F8080008F1010804DA9C
:100F80002D20764202F8080002E02B2002F808002B
:100F90000A214FF47A70864208F101080BDB96FBB8
:100FA000F0F3303302F8083096FBF0F308F1010853
:100FB00000FB136601E0642E0CDB642096FBF0F36B
:100FC000303302F8083096FBF0F308F1010800FB1B
:100FD000136601E00A2E06DB96FBF1F0303002F8D2
:100FE000080008F1010896FBF1F001FB10603030B9
:100FF00002F80800A16908F1010808EB050202EBFC
:101000000A00081AA0612078C00602D42046FFF723
:101010007DF9216A08AE01EB0A00206204E0D4E900
:10102000012116F8010B9047BAF1010AF7D2207896
:10103000C00602D52046FFF769F96E4609E016F8AA
:10104000010B3E280FD0D4E901219047206A401CB3
:101050002062B8F10108F2D22046FFF76DF909B01D
:101060000320BDE8F08F206A2844206203E0D4E921
:101070000121302090476D1EEBD3F8E70E5500009C
:1010800002FCFFFF01694A1C02610878704700B545
:101090008FB0CDE901310021059105497944CDE9B1
:1010A000031011466846FFF781FA0FB000BD00003B
:1010B000E5FFFFFF0A6802F8010B0A60704710B5F0
:1010C000436913B1AFF3008001E0FFF758F9012045
:1010D00010BD127800F124010A7000224A7001222A
:1010E000EDE711684FF0FF32E9E710B5436913B13E
:1010F000AFF3008001E0FFF7A7F9012010BD1288CF
:1011000000F1240182840022C2840122EDE71168EB
:101110004FF0FF32E9E770B516460C46054600F081
:101120001BF8036893F80101012806D0FF2C0FD8A3
:10113000185D68B101202C7070BDD3F807013246EC
:10114000214603F2071303442846BDE870401847C0
:101150004FF0FF3070BD000010B500F005F8001D25
:1011600010BD00BF614F000000487047F40500202B
:1011700030B5B0F10A024FEA900E71F100034EEA69
:10118000817EB0EB0E0061EB91014FEA101E4EEA3A
:10119000017E10EB0E0041EB11114FEA102E4EEACA
:1011A000016E10EB0E0041EB11214FEA104E4EEA9A
:1011B000014E10EB0E0041EB1141401841F10001CE
:1011C0004FEAD00040EA41704FEAD10110EB8005B0
:1011D0004FEA810444EA907444EB01046D1944EB36
:1011E0000404521BA3414FF0000348BF0A3200D54C
:1011F00030BD401C41F1000130BD00002DE9F0413F
:101200001F46044603260168072A01F4006004DB38
:1012100008B116A505E016A503E008B115A500E084
:1012200015A521F010002060A069C01EA0610FB1BB
:10123000401EA0612046FFF769F84FB1D4E90121B3
:1012400038469047206A401C2062C01C206206E09D
:10125000206AFAE7D4E9012115F8010B9047761EC0
:10126000F8D22046FFF768F8BDE8F0814E414E0005
:101270006E616E00494E4600696E66002DE9F047CA
:10128000814616468AB0354878440DC88DE80D0071
:1012900032487844801C03AC0DC884E80D0041F648
:1012A0009B300844372190FBF1F290FBF1F5A5F15A
:1012B000800501FB12041B3C02D56442012000E0C2
:1012C0000020DFF898A080460027FA44AAF1BE0A61
:1012D0000EE0E0070AD03246684607EB47010123DB
:1012E0000AEB810100F006FB8DE8070064107F1C0B
:1012F000002CEED1194F7F44AE3F19E0E80715D01E
:1013000007EB04100DF1180A90E80E008AE80E00B1
:10131000C068F04201D1981908903246012306A90D
:1013200003A800F0E7FA03AB83E807006D10641C24
:10133000002DE3D14FF0010332466946B8F1000FAA
:1013400003A802D000F0C1FA01E000F0D3FAC9E925
:101350000001C9F808200AB0BDE8F087A4510000D8
:1013600000487047D40500207546FFF7F9FFAE46E8
:1013700005006946534620F00700854618B020B5A1
:10138000FEF79EFFBDE820404FF000064FF000073B
:101390004FF000084FF0000B21F00701AC46ACE81D
:1013A000C009ACE8C009ACE8C009ACE8C0098D468A
:1013B000704710B50446AFF300802046BDE81040EA
:1013C000FEF76ABF01491820ABBEFEE72600020007
:1013D00070475FEA400C08BF91F0000F4FEA8C2382
:1013E0004FEAC12243EA51514FEA1C5018BF00F5A1
:1013F000F0404FEA300018BF41F000415FEA6C5CFA
:1014000000F02980BCF1FF3F08BF40F080407047EA
:10141000130C06BF12044FF0100C4FF0000C130E0B
:1014200004BF12020CF1080C130F04BF12010CF1DF
:10143000040C930F04BF92000CF1020CD30F04BFF5
:1014400052000CF1010C11464FF00002A0F11F00F8
:10145000A0EB0C00704711F0004F08BF704731F04F
:1014600000413FF4D5AF0B0C06BF09044FF0100C40
:101470004FF0000C0B0E04BF09020CF1080C0B0F0F
:1014800004BF09010CF1040C8B0F04BF89000CF19F
:10149000020CCB0F04BF49000CF1010CCCF120036E
:1014A000A0EB0C0022FA03F302FA0CF241EA03016A
:1014B00000F10100704720F07F4C80EA030023F028
:1014C0007F47ACEB070303F57C5300F0004003F1CA
:1014D000FF032DE980494FEA154B09B44FEA144345
:1014E00025EA0B4E24EA03480FF2042606EB1327E5
:1014F00049083E785FEA320203FB0667C7F500073A
:1015000007FB06F64FEA54374FEAD64606F10206C5
:1015100007FB066CCCF1005C4FEA1C472CEA074C39
:1015200007FB06F40CFB06F504EB15464FEA96168E
:1015300034BF00204FF000404FEAD13706FB07FCD4
:101540004FEA1C4C0CFB0BF7D21B03FB0CF761EBB7
:1015500007010CFB0EF7B0EB074072EB17420CFBD8
:1015600008F734BFA2EB0742B2EB074261EB174129
:101570004FEA0C444FEA910706FB07FC4FEA1C4C6C
:101580000CFB0BF7B0EBC74072EB573203FB0CF7C9
:1015900034BFA2EBC742B2EBC74261EB57310CFB41
:1015A0000EF7B0EBC70072EB57720CFB08F734BFB5
:1015B000A2EBC702B2EBC70261EB5771039F4FEA80
:1015C000816141EA921104EBCC044FEAD1374FEA32
:1015D000826206FB07FC42EA90124FEA80604FEA03
:1015E0001C4C0CFB0BF7D21B03FB0CF761EB070148
:1015F0000CFB0EF7B0EB074072EB17420CFB08F741
:1016000034BFA2EB0742B2EB074261EB17414FEA4E
:101610008C554FEA910704EB9C2406FB07FC4FEA2C
:101620001C4C0CFB0BF7B0EBC74072EB573203FBC3
:101630000CF734BFA2EBC742B2EBC74261EB5731A4
:101640000CFB0EF7B0EBC70072EB57720CFB08F700
:1016500034BFA2EBC702B2EBC70261EB577115EBC7
:101660004C254FEA816141EA92114FEA82624FEACA
:10167000D13742EA901206FB07FC44F100044FEA1E
:1016800080604FEA1C4C0CFB0BF7D21B03FB0CF7E2
:1016900061EB07010CFB0EF7B0EB074072EB174252
:1016A0000CFB08F734BFA2EB0742B2EB074261EB39
:1016B000174115EB1C154FEA813141EA92414FEA7F
:1016C000823242EA90424FEA80304FEA0C7644F18F
:1016D000000448EA03434EEA0B484FF0000EB2EB19
:1016E000080C71EB030724BF624639464EEB0E0E21
:1016F0004FF0000B0018524149414BEB0B0BB2EB82
:10170000080C71EB03077BF1000B24BF62463946DE
:101710004EEB0E0E4FF0000B0018524149414BEBBF
:101720000B0BB2EB080C71EB03077BF1000B24BF32
:10173000624639464EEB0E0E51EA020718BF46F0DC
:10174000010616EB0E7655F1000254F1000103D5A7
:10175000BDE88901BDE80088BDE88901BDE8004811
:10176000B619524141EB0101A3F10103704780809A
:101770007F7E7D7C7B7A79787776767574737271EB
:1017800071706F6E6E6D6C6C6B6A6A6968686766A3
:1017900066656464636362616160605F5F5E5E5D35
:1017A0005D5C5C5B5B5A5A595958585757565655A9
:1017B00055555454535352525251515050504F4F0B
:1017C0004F4E4E4D4D4D4C4C4C4B4B4B4A4A4A495B
:1017D000494948484847474747464646454545449E
:1017E0004444444343434342424242414141002B2B
:1017F0009C4630D477002BD01CB54FEA370703B492
:101800004FF010004FF01001BAF1000F06D0BCF1FC
:10181000000FDCBF40F0080040F008014FF000006E
:101820000FBCBDE810400BF1010BBBF1010F08BF6D
:101830005FEA170722BF12F1010211F101014FF017
:10184000004143F1000300F0004043EA000070470C
:10185000F9D35708D0E746EA064613F1400F4FEA9E
:1018600016461FDD13F1200FDFBF16430A46002185
:1018700020335B42BED0C3F1200746EA064602FA97
:1018800007F74FEA164646EA0706C3F1200722FA91
:1018900003F201FA07F721FA03F14FF0000342EADD
:1018A0000702A7E746EA020646EA06464FEA164658
:1018B00046EA0106BCBF46EA0646360C4FF0000376
:1018C0004FF000024FF0000194E72DE9804C9A465A
:1018D000934670B491E8380007C831EA400C48BF1D
:1018E00034EA430C03D5FFF7E6FDFFF780FFF0BCB9
:1018F000BDE8008C2DE9804C9A46934670B491E87F
:10190000380007C810F0804F08BF13F0804F03D194
:1019100000F005F8FFF76BFFF0BCBDE8008C20F08D
:101920007F4780EA030023F07F4C07EB0C03A3F50D
:101930007C5300F00040A3F1FE0392F0000F00F092
:10194000B38095F0000F00F077802DE901494FEA50
:1019500011404FEA144621EA004800FB06FC24EA45
:10196000064708FB06F607FB08F800FB07F718EB2D
:1019700006484CEB164C4FEA124B18EB07484FEA5F
:1019800015464CEB174022EA0B4E0BFB06FC25EAF2
:1019900006470EFB06F607FB0EFE0BFB07F71EEBDA
:1019A000064E4CEB164C4FF000061EEB074E4CEB70
:1019B000174B18EB0B0840F1000018EB0E0B58EB1F
:1019C000000840F100008F1A4FF000013CBFC943EE
:1019D000661B14BFB5EB040C00213CBFC943F61BCA
:1019E0004FEA17444EEA8E0E27EA04454FEA1C4799
:1019F00004FB07622CEA074C05FB07F70CFB05F616
:101A000004FB0CFC16EB074642EB174216EB0C46A8
:101A100042EB1C421BEB060658EB0202414146EA30
:101A20009E0601D5BDE80189B619524141EB01017D
:101A3000A3F10103BDE801894FEA14454FEA1147BC
:101A400024EA054621EA074C05FB07F406FB07F7E5
:101A50000CFB06F105FB0CFC11EB074144EB1744B2
:101A60004FEA124711EB0C4144EB1C4422EA074CAD
:101A700005FB07F206FB07F70CFB06F605FB0CFC63
:101A800016EB074642EB174216EB0C4642EB1C45A1
:101A90006A1854F1000148BF7047B619524141EB32
:101AA0000101A3F10103704795F0000F37D04FEA11
:101AB00011424FEA144721EA024624EA074C02FB8E
:101AC00007F106FB07F70CFB06F402FB0CFC14EB1A
:101AD000074441EB17414FEA154714EB0C4441EB27
:101AE0001C4125EA074C02FB07F506FB07F70CFB38
:101AF00006F602FB0CFC16EB074645EB174516EB0A
:101B00000C4645EB1C42121951F1000148BF7047C9
:101B1000B619524141EB0101A3F1010370474FEAAD
:101B200014454FEA114724EA054621EA074C05FB14
:101B300007F106FB07F70CFB06F24FF0000605FB6A
:101B40000CFC12EB074241EB174112EB0C4251EB3C
:101B50001C4148BF7047921841EB0101A3F10103FA
:101B60007047FEE7704710B590F821100024022955
:101B700003D004218163012418E001680A6822F07F
:101B80000E020A6001680A6822F001020A6090F8F9
:101B90004020C36B012101FA02F25A6080F8211043
:101BA000002180F82010416B01B18847204610BD0C
:101BB00090F82100704700002DE9F04FDFF82492E3
:101BC000002209F1040A012603250AF1040B85B05D
:101BD0000F270BF1040EFCE006FA02F423407CD040
:101BE00091F804C00CF0030CBCF1010F02D0BCF161
:101BF000020F26D1D0F808C0CDF800C04FEA420C41
:101C000005FA0CF8CDF810C0DDF800C02CEA080C7D
:101C1000CDF800C0D1F80C80DDF810C008FA0CF83F
:101C2000DDF800C048EA0C08C0F80880D0F804C00D
:101C30002CEA040C0C79C4F30014944044EA0C041C
:101C400044600C79E443A4070ED0C4684FEA42080C
:101C500005FA08FC24EA0C04D1F808C00CFA08FCC8
:101C60004CEA040CC0F80CC00C7904F00304022CFC
:101C700015D1D40800EB84040294246A4FEA427C14
:101C80004FEADC6807FA08FC24EA0C04D1F810C01B
:101C90000CFA08FC4CEA040C029CC4F820C004684E
:101CA0004FEA420805FA08FC24EA0C0491F804C043
:101CB0000CF0030C0CFA08FC4CEA040CC0F800C051
:101CC0004C6814F4403F08D0474CD4F818C04CF08E
:101CD000010CC4F818C0A46900E079E004F0010424
:101CE0000094424C22F0030C64440294A4684FEA2E
:101CF000827C4FEA1C7807FA08FC24EA0C04B0F155
:101D0000904F06D0DFF8E8C0604505D14FF0010CD8
:101D100027E04FF0000C24E0DFF8D8C0604502D186
:101D20004FF0020C1DE0DFF8D0C0604502D14FF04B
:101D3000030C16E0DFF8C4C0604502D14FF0040C7C
:101D40000FE0DFF8BCC0604502D14FF0050C08E0A1
:101D5000DFF8B0C0604502D14FF0060C01E04FF053
:101D6000070C0CFA08FC4CEA040C029CC4F808C0EE
:101D7000D9F80040CC46D1F804809C435FEAC838CB
:101D800000D51C43CCF80040DAF80040D446D1F826
:101D900004809C435FEA883800D51C43CCF800409F
:101DA000DBF80040DC46D1F804809C435FEAC82899
:101DB00000D51C43CCF80040DEF80040F446D1F8D2
:101DC00004809C435FEA882800D51C43CCF800407F
:101DD000521C0B6833FA02F47FF4FEAE05B0BDE886
:101DE000F08F00000004014000100240000001409C
:101DF0000004004800080048000C0048001000489B
:101E0000001400480018004801488068704700002E
:101E10007000002090F84120202A24D190F8402022
:101E2000012A20D0012280F84020242280F841207D
:101E30000268136823F0010313600268136823F437
:101E400080531360026813680B43136001680A68CB
:101E500042F001020A60202180F84110002180F840
:101E60004010084670470220704790F84120202A11
:101E700022D190F84020012A1ED0012280F8402073
:101E8000242280F841200268136823F001031360C4
:101E90000268136823F4706343EA0121116001684A
:101EA0000A6842F001020A60202180F841100021F6
:101EB00080F840100846704702207047704770470E
:101EC00030B403689A691968D243D40509D4CC4365
:101ED000240606D4446C44F0010444644FF4807436
:101EE000DC6153050AD4CB431B0607D4436C43F093
:101EF0000803436404684FF48063E36192050AD4E5
:101F0000C943090607D4416C41F0020141640268EB
:101F10004FF40071D161416C11F00B0F02D030BC55
:101F200001F0AABA30BC7047026891691268436B2D
:101F3000002B00D0184770477047406C7047000076
:101F400070B5040004D094F84100002510B106E0FB
:101F5000012070BD84F84050204600F073F9242021
:101F600084F841002068016821F001010160606887
:101F7000216820F0706008612068816821F40041C8
:101F80008160E0680128A06807D040F4044021681F
:101F90008860E068022803D006E040F40040F6E7DD
:101FA00021684FF40060486020684168114A11437D
:101FB00041602068C16821F40041C160D4E9040196
:101FC0000843A16940EA01202168C860D4E90701FB
:101FD0000843216808602068016841F00101016040
:101FE0006564202084F84100256384F84250002075
:101FF00070BD000000800002704700002DE9F84F1E
:10200000044690F84100DDF828A01F4690468B4614
:1020100020287ED194F8400001287AD0012084F84D
:102020004000FFF7F1FE0646012200901923D1037C
:10203000204601F0A4FCE0BB222084F841001020DF
:1020400084F8420000256564C4F8248067856563D0
:10205000618D3148FF274FF080784FF00079FF29DC
:1020600003D927853A46009039E0618D218500909B
:102070003AE05946204601F057FC13E001F0ACFC71
:10208000B8B92068406A616A0870606A401C606282
:10209000208D401E80B22085618D491E6185618D35
:1020A00001B168B1608D3246002851462046E5D125
:1020B00000E002E001F0D2FCD0B10120BDE8F88FD1
:1020C0005346002280212046009601F058FC00284B
:1020D000F3D1608DFF2804D927853A460095434601
:1020E000C7E7608D2085009594F828204B46C0E70F
:1020F00021682020C86121684A68084B1A404A605C
:1021000084F8410084F8425084F840500020D5E71C
:10211000FFE70220D2E700000024008000E800FE74
:102120002DE9F84F044690F84100DDF828A01F463D
:1021300090468B4620287ED194F8400001287AD022
:10214000012084F84000FFF75FFE06460122009060
:102150001923D103204601F012FCE0BB212084F8B2
:102160004100102084F8420000256564C4F82480F2
:1021700067856563618D3148FF274FF080784FF0A8
:102180000079FF2903D927853A46009039E0618D0F
:10219000218500903AE05946204601F0C5FB13E046
:1021A00001F082FCB8B9606A216800788862606AD0
:1021B000401C6062608D401E6085208D401E80B294
:1021C0002085618D01B168B1608D3246002851468D
:1021D0002046E5D100E002E001F040FCD0B1012052
:1021E000BDE8F88F5346002280212046009601F07A
:1021F000C6FB0028F3D1608DFF2804D927853A4615
:1022000000954346C7E7608D2085009594F8282007
:102210004B46C0E721682020C86121684A68084B06
:102220001A404A6084F8410084F8425084F84050D3
:102230000020D5E7FFE70220D2E700000020008061
:1022400000E800FE10B586B0044614216846FEF78B
:10225000C7FA1B49206888422FD11A4C606940F4A4
:10226000802060616069694600F4802005904FF429
:1022700040700090122001900020029003200390F3
:10228000042004901048FFF797FCE06940F4001028
:10229000E061E069002200F40010059011461F2063
:1022A00000F074F81F2000F063F80022114620208F
:1022B00000F06CF8202000F05BF806B010BD0000C4
:1022C000005400400010024000040048704770476E
:1022D00002488168027811448160704770000020D4
:1022E000074810B5016841F010010160032000F0BB
:1022F0006DF8002000F006F800F024F8002010BD72
:102300000020024070B50D4D04464FF47A712878D4
:10231000B1FBF0F00A490968B1FBF0F000F07BFB7B
:1023200048B9102C07D200222146501E00F02EF88A
:1023300000206C6070BD012070BD000070000020A6
:102340007C000020094808B5816941F001018161E4
:10235000816901F001010091C16941F08051C161C1
:10236000C06900F08050009008BD000000100240DD
:10237000002809DB00F01F02012191404009800084
:1023800000F1E020C0F8001170470000F0B40E4BDF
:102390001B680C46C3F30223C3F10705042D00D9C3
:1023A0000425191D072901D2002300E0DB1E0126A8
:1023B00006FA05F1491E214099409E40761E1640BE
:1023C0003143F0BC03F008B80CED00E0064900F022
:1023D000070208684FF6FF03184040EA0220034A4C
:1023E00010430860704700000CED00E00000FA05A3
:1023F000704770472DE9F04704685FEA42480B7860
:102400008D69B4F850804FF0000C4BF68F7748F28E
:10241000800648F68F7948F2C00A444428D540F235
:10242000024808EBC30834F80840C4F30904A54285
:1024300003D32D1B8D6102D00BE0C1F818C0D0F87A
:1024400000C03CF823503D4085F4005535432CF83E
:102450002350520609D50B78056835F8232002EA87
:10246000090242EA0A0225F8232074B30A8927E008
:1024700040F2064808EBC30834F80840C4F30904E6
:10248000A54203D32D1B8D6102D00BE0C1F818C00B
:10249000D0F800C03CF823503D4085F4005535434A
:1024A0002CF82350520609D40D78036833F8252000
:1024B00002EA090242EA0A0223F825202CB14A89DD
:1024C00049690068234602F022FF2046BDE8F087F4
:1024D0002DE9F047054600680C465FEA426816465B
:1024E000D1F818C02278B0F8508048F68F774CF2B7
:1024F00080094FF6FF734FF4004A4FF0000140444B
:102500007BD540F2024808EBC20830F80800C0F35F
:102510000900844514D9BCEB000CC4F818C010D0D5
:10252000760408D5D5F800C03CF822603E4046EA63
:1025300009062CF8226094F82420012A50D04EE19C
:10254000A161607810B1012813D01AE02868B0F8B2
:102550005030184400EBC200B0F8022422F4F842D4
:10256000A0F80224B0F8022442F40042A0F80224A9
:1025700007E02868B0F85030184400EBC200A0F81B
:1025800002146278286812B1012A11D018E0B0F85C
:1025900050100844217800EBC100B0F8061421F473
:1025A000F841A0F80614B0F8061441F4004105E023
:1025B000B0F850201044227800EBC200A0F80614B6
:1025C00021782846FFF714FF7004B8D521782A68CF
:1025D00032F82100384040EA090022F82100FEE0EC
:1025E000626902446261E2690244E2612669226A28
:1025F000B24203D33046111A04E038E084F82410C4
:102600000AB110462162617811B1012923D02BE073
:102610002968B1F850201144227801EBC20101F27F
:10262000024148B13E280FD84208C60700D0521CCC
:1026300003EA82220A8017E00A8822F4F8420A801C
:102640000A8842F40042F5E74209C30600D1521E4F
:102650004AEA8222EEE72968B1F850201144227834
:1026600001EBC201A1F8020483B22289B3E040F277
:10267000064808EBC20830F80800C0F3090084459A
:1026800014D3BCEB000CC4F818C010D0760408D4E6
:10269000D5F800C03CF822603E4046EA09062CF816
:1026A000226094F82420012A50D098E0A16160783B
:1026B00010B1012813D01AE02868B0F8503018443F
:1026C00000EBC200B0F8022422F4F842A0F8022481
:1026D000B0F8022442F40042A0F8022407E028687F
:1026E000B0F85030184400EBC200A0F80214627831
:1026F000286812B1012A11D018E0B0F8501008442F
:10270000217800EBC100B0F8061421F4F841A0F8DC
:102710000614B0F8061441F4004105E0B0F850206A
:102720001044227800EBC200A0F806142178284655
:10273000FFF75EFE700452D42278296831F8220037
:10274000384040EA090021F8220048E0626902446A
:102750006261E2690244E2612669226AB24203D3FD
:102760003046111A216204E00AB11046216284F851
:1027700024106278296812B1012A22D029E0B1F828
:1027800050201144227801EBC20101F2064148B108
:102790003E280FD84208C60700D0521C03EA822206
:1027A0000A8016E00A8822F4F8420A800A8842F475
:1027B0000042F5E74209C30600D1521E4AEA8222CE
:1027C000EEE7B1F850201144227801EBC201A1F8E4
:1027D0000604628983B26169286802F0B3FD21783A
:1027E0002A6832F8210048F6BF73184080F03000A4
:1027F00048F28003184322F821000020BDE8F0874A
:1028000010B50446006802F07FFD000402D52046A2
:1028100001F0CCFD206802F077FD40050CD5206862
:1028200030F8441F21F480610180204600F0DAF87E
:102830000021204600F0D9F8206802F065FD400430
:1028400005D5206830F8441F21F4804101802068BC
:1028500002F05AFD800405D5206830F8441F21F4A9
:1028600000510180206802F04FFDC00414D520689B
:1028700030F8401F21F004010180206830F8401F2B
:1028800021F008010180204600F0ADF8206830F802
:10289000441F21F480510180206802F035FD0005BD
:1028A00014D5206830F8401F41F0080101802068ED
:1028B00030F8441F21F400610180206830F8401F87
:1028C00041F004010180204600F0A4F8206802F0E5
:1028D0001BFD800508D5206830F8441F21F40071E5
:1028E0000180204600F080F8206802F00DFDC00550
:1028F00005D5206830F8441F21F48071018010BD97
:1029000070B586B0040004D094F8A902002518B16F
:1029100007E0012006B070BD84F8A852204600F000
:1029200043F8032084F8A902206802F09CFA0020F2
:1029300001260EE000EB800104EBC10181F8296063
:1029400001F8280FC881CD700D614D61401CC0B2E7
:102950008D6161688142EDD8002011E000EB8001BB
:1029600004EBC10181F8695181F8680181F86B516C
:10297000C1F87851C1F87C51401CC0B2C1F88051F7
:1029800061688142EAD8142204F110016846FDF71B
:10299000F5FE94E80F0002F05DFA84F8245084F804
:1029A000A9620020B6E7000008B500680B4988421C
:1029B00012D10B48C16941F40001C161C069002214
:1029C00000F40000009011461420FFF7DFFCBDE882
:1029D00008401420FFF7CCBC08BD0000005C00409C
:1029E0000010024070477047704710B5044690F8D9
:1029F000A80201280BD0012084F8A80284F8241032
:102A0000206802F098FC002084F8A80210BD022083
:102A100010BD7047704710B5401EB0F1807F01D3E4
:102A2000012010BD4FF0E02460610F21601702F01B
:102A3000D3FC0020A06107202061002010BD70475A
:102A40007047704730B590F83C20012A3DD00122F4
:102A500080F83C20CA688B6822F440721A434B68A5
:102A600022F480621A430B6822F400621A430B6955
:102A700022F480521A434B6922F400521A438B6AA3
:102A800022F480421A430B8B22F4702242EA034262
:102A90000F4D03680024AB4205D00E4DAB4202D06F
:102AA0000D4DAB420CD18D8C22F4700242EA0552DE
:102AB000CD6922F080722A43096A22F000720A432B
:102AC0005A6480F83C40002030BD022030BD000038
:102AD000002C01400034014000500140F0B590F856
:102AE0003C20012A3CD0012580F83C50022280F88D
:102AF0003D200268536894681A4E1B4FDFF86CC083
:102B0000B24203D0BA4201D0624504D123F4700E20
:102B10004B6843EA0E0323F0700E0B6843EA0E0382
:102B200053600268B2420FD0B2F1804F0CD0104B0C
:102B30009A4209D00F4B9A4206D0BA4204D00E4BAB
:102B40009A4201D0624504D1896824F08003194378
:102B5000916080F83D50002180F83C100846F0BD9F
:102B60000220F0BD002C0140003401400050014023
:102B700000040040000800400040014010B5044639
:102B8000022249B104290ED0082913D094F8470035
:102B9000012816D0012010BD94F844000128F9D175
:102BA00084F844200FE094F845000128F2D184F81D
:102BB000452008E094F846000128EBD184F846202F
:102BC00001E084F847200422206801F02CFF2068EF
:102BD000416C41F40041416411492068884211D0A0
:102BE000B0F1804F0ED00F4988420BD00E49884279
:102BF00008D00E49884205D00D49884202D00D49BF
:102C0000884207D181680C4A1140062906D0B1F5E7
:102C1000803F03D0016841F001010160002010BD38
:102C2000002C014000040040000800400034014036
:102C300000400140005001400700010010B50400B1
:102C400003D094F83D0010B107E0012010BD002032
:102C500084F83C00204600F023F8022084F83D0070
:102C6000211D206801F070FE012084F8480084F8DE
:102C70003E0084F83F0084F8400084F8410084F866
:102C8000420084F8430084F8440084F8450084F846
:102C9000460084F8470084F83D00002010BD000085
:102CA00008B5114A01681148914208D1816941F47F
:102CB00000618161806900F40060009008BD0C4AE9
:102CC0009142FBD1C16941F01001C161C06900228C
:102CD00000F01000009011463620FFF757FBBDE8CA
:102CE00008403620FFF744BB002C01400010024092
:102CF0000010004090F83D10012901D001207047DC
:102D0000022180F83D100168CA6842F00102CA60E1
:102D100000681149884211D0B0F1804F0ED00F49A0
:102D200088420BD00E49884208D00E49884205D00F
:102D30000D49884202D00D49884207D181680C4A6A
:102D40001140062906D0B1F5803F03D0016841F05B
:102D50000101016000207047002C01400004004088
:102D60000008004000340140004001400050014094
:102D70000700010070B5044690F83C0000250128CA
:102D800017D0012684F83C60022084F83D002268B8
:102D900090682F4B184020F47F40906008685028BE
:102DA00038D00DDC20284FD005DC90B3102811D18D
:102DB0004AE0022070BD302846D040280AD13BE0CE
:102DC00060282FD070280DD0B0F5805F03D0B0F50B
:102DD000005F12D0012584F83D60002084F83C009B
:102DE000284670BDCB68D1E90121206801F028FE9A
:102DF0002068816841F0770109E0CB68D1E90121C1
:102E0000206801F01DFE2068816841F480418160E6
:102E1000E1E719E0CA684968206801F0D3FF502152
:102E2000206806E0CA684968206801F0DCFF60217C
:102E3000206801F00FFECEE7CA684968206801F0FB
:102E4000C1FF40212068F4E7226801461046F0E700
:102E500088FFFEFF704770B50446006801694FF0B7
:102E60000005C943890715D4C168C943890711D42E
:102E7000E91E0161012020772068806980072046D3
:102E800002D0FFF7E7FF04E000F0E4F8204600F08E
:102E9000A6F9257720680169C943490717D4C16895
:102EA000C943490713D46FF0040101610220207760
:102EB0002068806910F4407F204602D0FFF7CAFFE7
:102EC00004E000F0C7F8204600F089F92577206873
:102ED0000169C943090716D4C168C943090712D457
:102EE0006FF008010161042020772068C069800725
:102EF000204602D0FFF7AEFF04E000F0ABF820461A
:102F000000F06DF9257720680169C943C90617D417
:102F1000C168C943C90613D46FF0100101610820CC
:102F200020772068C06910F4407F204602D0FFF768
:102F300091FF04E000F08EF8204600F050F925776C
:102F400020680169C943C90708D1C168C943C907D5
:102F500004D1891E0161204600F0DCF92068016976
:102F6000C943090609D4C168C943090605D46FF0ED
:102F7000800101612046FFF763FD20680169C943B4
:102F8000C90509D4C168C943090605D46FF4807125
:102F900001612046FFF753FD20680169C9434906D6
:102FA00009D4C168C943490605D46FF040010161E5
:102FB000204600F0B0F920680169C94389060BD4A6
:102FC000C168C943890607D46FF02001016120461A
:102FD000BDE87040FFF735BD70BD000030B587B06B
:102FE000044614216846FDF7FBFB17492068884218
:102FF00028D11648416941F400214161416901F439
:1030000000210591416941F4003141614069022587
:1030100000F400300590012000900024CDE9015417
:1030200069460B48CDE90345FEF7C6FD80200090B8
:10303000CDE901540620CDE9034069464FF09040A8
:10304000FEF7BAFD07B030BD002C01400010024071
:1030500000080048704770B5044690F83C00002610
:103060000D4601280BD0012084F83C000C2A4AD0E0
:1030700007DC82B1042A20D0082A06D131E00220E0
:1030800070BD102A53D0142A63D00126002084F882
:103090003C00304670BD206801F0E4FC2068816986
:1030A00041F0080181612068816921F0040181619A
:1030B000206881692A69114311E0206801F028FD28
:1030C0002068816941F4006181612068816921F48F
:1030D00080618161206881692A6941EA02218161F8
:1030E000D4E7206801F064FD2068C16941F008015F
:1030F000C1612068C16921F00401C1612068C16912
:103100002A69114311E0206801F0A2FD2068C1691D
:1031100041F40061C1612068C16921F48061C1612D
:103120002068C1692A6941EA0221C161AEE72068CD
:1031300001F0CEFD2068416D41F008014165206835
:10314000416D21F0040141652068416D2A691143F8
:1031500011E0206801F0F8FD2068416D41F4006144
:1031600041652068416D21F4806141652068416DB1
:103170002A6941EA0221416588E710B5040003D0BD
:1031800094F83D0010B107E0012010BD002084F844
:103190003C00204600F022F8022084F83D00211D6A
:1031A000206801F0D1FB012084F8480084F83E003B
:1031B00084F83F0084F8400084F8410084F842001D
:1031C00084F8430084F8440084F8450084F84600FD
:1031D00084F8470084F83D00002010BD7047704718
:1031E000F0B500250446022269B1042916D0082949
:1031F0005AD00C2963D0102968D094F843000128D4
:103200006BD00120F0BD94F83E000128F9D184F87C
:103210003E202068C26842F0020209E094F83F00B4
:103220000128EED184F83F202068C26842F00402F1
:10323000C2600122206801F0E9FB2D4920682D4A77
:103240002D4B2E4E88420BD0904209D0984207D089
:103250002B4FB84204D02B4FB84201D0B04203D11B
:10326000476C47F400474764206888420ED0B0F1AD
:10327000804F0BD02449884208D02449884205D089
:10328000904203D0984201D0B04207D18168204AD1
:103290001140062906D0B1F5803F03D0016841F006
:1032A000010101602846F0BD94F840000128A8D132
:1032B00084F840202068C26842F00802B8E794F819
:1032C000410001289DD184F8412008E094F8420093
:1032D000012896D184F8422003E084F843200C2989
:1032E00001D00125DEE72068C26842F010029FE7A6
:1032F000002C0140003401400040014000500140DA
:103300000044014000480140000400400008004023
:103310000700010070477047FEE70000084800689A
:103320008069C043800407D40648016841F4005115
:1033300001600549012008700148FEF7C1BD000089
:10334000740100201C540040600000200148FEF77A
:10335000EBBD000074010020406A0021826B02B1C5
:103360005163C26B02B1516300F0F4BA10B5002290
:10337000CC074FF0280306D090F84140422233EAB0
:10338000040400D0F2228C0707D590F8414042F0A7
:103390004402A34301D042F0B0020B0401D542F035
:1033A000B802102904D0202905D0402906D007E012
:1033B00042F0900204E042F0200201E042F04002BC
:1033C000006801689143016010BD01688A69D243B9
:1033D000920701D400228A6200688169C943C90743
:1033E00003D0816941F00101816170472DE9F0410D
:1033F000044690F841002821814320684FF00005E1
:103400004FF0080304D0C36184F84050BDE8F08158
:103410008169C1F300478169FE2202EA1146816891
:10342000C1F30902C168D4F80CE001F0FE014FF4C9
:10343000004CBEF1020F17D14FF0060E06F0060643
:103440000EEAD21E76450ED1A16C491CA164A16C76
:103450000229DBD1A564C36184F840503946204677
:10346000FEF72DFDD2E70E4661462046FFF77EFFB0
:1034700084F840503246F1E770B5044690F84100B8
:10348000002584F84250364AE2626585626C0A4340
:10349000626428281FD029281DD02A281BD048F272
:1034A00003012046FFF762FF94F84100602802D034
:1034B000202084F841006563206B2A4EA16B19B16E
:1034C000112812D0212810D0E16BE9B3122824D0A2
:1034D000222822D03EE003212046FFF747FF282084
:1034E00084F8410020486063E6E7206801684904E9
:1034F00003D5016821F480410160A06BFEF758FB01
:10350000012827D0A06B466384F84050A06BFEF7DB
:103510002AFB002823D0A06B18E02068016809046A
:1035200003D5016821F400410160E06BFEF740FB28
:1035300001280FD0E06B466384F84050E06BFEF743
:1035400012FB00280BD000E004E0E06B416BBDE80B
:10355000704008472046BDE8704000F0FBB970BDE0
:103560000000FFFF593300080938000870B5044611
:103570001648E06200252563202084F8410084F885
:103580004250C8436563400711D42068406A616AAD
:103590000870606A401C6062208D40B1401E20852A
:1035A000608D401E6085606C40F00400606448F2ED
:1035B00003012046FFF7DAFE21681020C86184F875
:1035C00040502046FEF718FD70BD00000000FFFFD0
:1035D0002DE9F04102680446156890F841000E4656
:1035E0002027D761212806D0292804D0222809D0F5
:1035F0002A2807D00DE048F201012046FFF7B6FE69
:10360000212005E048F202012046FFF7AFFE22200C
:1036100020632068416841F40041416020684168AE
:10362000354A114041602046FFF7CFFEE843410490
:1036300006D42068016821F480410160A06B07E096
:10364000000409D42068016821F400410160E06BA6
:1036500010B1006840686085F04340070FD42068CF
:1036600026F00406406A616A0870606A401C606265
:10367000208D20B1401E2085608D401E6085608DAC
:1036800018B1606C40F004006064002584F842507A
:103690006563606C68B1616C2046FFF7EDFE94F8DD
:1036A0004100282815D131462046BDE8F041FFF7FA
:1036B0005DBFE06A114EB0420DD0204600F020F808
:1036C000E66284F84170256384F840502046FEF796
:1036D00093FCBDE8F08194F8410084F84170222801
:1036E000256384F84050204602D0FEF7F0FDF0E755
:1036F000FEF7ECFDEDE7000000E800FE0000FFFF34
:1037000070B5044600680168002584F84250C9433A
:103710004A0403D4016821F4804104E0090403D47D
:10372000016821F40041016094F841102820292902
:1037300011D094F841102A290CD184F8410022209C
:10374000206302212046FFF711FE84F840502046F6
:10375000FEF7BCFD70BD84F84100212020630121EB
:103760002046FFF703FE84F840502046FEF7AFFDE9
:1037700070BD00002DE9F041044600680E469046F9
:103780008169C943C9063AD44168890103D44168B3
:1037900041F4804141600025202720688069C043B2
:1037A000800615D5701CF8D0FEF72EFBA0EB0800A4
:1037B000B04201D8002EF0D154F8440F40F0200060
:1037C00044F804096770A57025700120BDE8F081F8
:1037D00021681020C8612068C7612046FFF7F5FD09
:1037E00054F8440B4168074A11404160206840F09A
:1037F000040044F820096777A5772577E5E70020DE
:10380000E4E7000000E800FE2DE9F041C56A044647
:1038100090F840008846012826D0012084F8400016
:103820006FEA0807B8066FEA020605D4B00603D4AB
:1038300041462046FFF7CCFE3A49F8064FF0807229
:1038400031D4F0062FD4638D102083B12168C86174
:10385000606C40F0040060640DB195425ED1616C13
:103860002046FFF709FE59E00220BDE8F08194F8F8
:103870004120282A02D1B5F1007F04D094F84120DC
:10388000292A05D00CE041462046FFF76FFE45E0AF
:103890008D4205D02168C8612046FFF796FD3AE0C9
:1038A0002168C8613AE0780715D4700713D4608D99
:1038B00060B12068406A626A1070606A401C606291
:1038C000208D401E2085608D401E6085608D28BB48
:1038D0008D4220D122E0380706D4300704D4414677
:1038E0002046FFF783FD19E0B80717D4B00715D4B9
:1038F000608D68B1606A216800788862606A401CE7
:103900006062608D401E6085208D401E208505E030
:10391000954200D015B92046FFF7F2FE002084F84A
:103920004000A2E70000FFFFF0B50568059C68684D
:103930004FF48066064FC1F3090106EA545641EA86
:1039400002413E431943B043214308436860F0BD40
:10395000FF63FF0310B590F841200021602A05D0D5
:10396000016380F84010FEF7E7FA10BD202280F8CE
:103970004120016380F84010FEF7A0FA10BD2DE948
:10398000F0411D4617460E460446DDF8188008E053
:10399000681C06D0FEF738FAA0EB0800A8420BD846
:1039A00055B12068806936EA000012D00020B84284
:1039B000EED00020BDE8F08154F8440F40F0200024
:1039C00044F80409202060700020A07020700120BD
:1039D000F0E70120EBE700002DE9F04100269046DA
:1039E0000F460446202525E0424639462046FFF78B
:1039F000C1FE78BB20688069C043800613D420686C
:103A00008169C943490701D4218DC1B9C56154F801
:103A1000440B4168104A1140416044F820696577C1
:103A2000A677267716E0FEF7EFF9A0EB0800B8427C
:103A300008D83FB120688069C0434007D4D4002033
:103A4000BDE8F08154F8440F40F0200044F8040928
:103A5000657026700120F3E700E800FE70B5164699
:103A60000D4604460DE0324629462046FFF782FE09
:103A700008B1012070BDFEF7C7F9801BA84207D826
:103A800035B120688069C0438006ECD4002070BD49
:103A900054F8440F40F0200044F8040920206070DE
:103AA0000020A0702070E4E770B516460D4604466D
:103AB0000FE0324629462046FFF75CFE08B10120A0
:103AC00070BD681C05D0FEF79FF9801BA84207D87F
:103AD00035B120688069C0438007EAD4002070BDFA
:103AE00054F8440F40F0200044F80409202060708E
:103AF0000020A0702070E2E7044908B54A6902433B
:103B00004A6149690140009108BD0000001002406F
:103B1000F0B54D4A4C4C077A20320026251F131F62
:103B20000168002F71D091B1477A3FB3012F2DD09A
:103B3000022F2ED00126857A4DB1434908310C1F42
:103B4000012D2ED0022D35D0032D39D0012641680C
:103B5000002967D0447A8CB3012C42D0022C43D088
:103B60000126837A5BB3384928310A1F012B43D0E1
:103B7000022B4BD0032B4DD0012653E027688F43F7
:103B8000276001682C680C432C60D4E72F688F43B2
:103B900001E02F680F432F60016825680D43256001
:103BA000C9E705680F68AF430F60016825680D43DA
:103BB0002560CCE705682768AF4304E009E031E001
:103BC000056827682F43276004680D6825430D604A
:103BD000BDE714688C43146041681A680A431A6090
:103BE000BFE71C688C4301E01C680C431C60416803
:103BF00013680B431360B4E743680C689C430C6084
:103C000040681168014311600CE00DE043681468DE
:103C10009C4302E0436814681C43146040680A68CF
:103C200002430A603046F0BD2F688F432F60016861
:103C300025688D43256041681C688C431C60406882
:103C400011688143DFE7000004040140F0B50A6811
:103C50000F2692FAA2F2B2FA82F303248EE0012533
:103C60009D402A407ED04D68012D01D0022D20D1EB
:103C70008D68876892FAA2FCBCFA8CFC4FEA4C0C67
:103C800004FA0CFC27EA0C0792FAA2FCBCFA8CFCA2
:103C90004FEA4C0C05FA0CF52F438760CF680D688E
:103CA000D0F804C02CEA050C7D434CEA050CC0F8A2
:103CB00004C00F69D0F80CC092FAA2F5B5FA85F5E8
:103CC0004FEA450E04FA0EF52CEA050C92FAA2F51D
:103CD000B5FA85F56D00AF404CEA070CC0F80CC092
:103CE0004D68022D33D192FAA2F5B5FA85F5082D6B
:103CF00015D2D1F814C0056A92FAA2F7B7FA87F77D
:103D0000BF0006FA07F7BD4392FAA2F7B7FA87F7A2
:103D1000BF000CFA07FC45EA0C05056217E0D1F874
:103D200014E0476A150A95FAA5FCBCFA8CFC4FEA28
:103D30008C0C06FA0CFC95FAA5F5B5FA85F5AD00E4
:103D400027EA0C070EFA05FE47EA0E0747624D68A0
:103D5000076892FAA2FCBCFA8CFC4FEA4C0C04FAFD
:103D60000CFE00E009E092FAA2F2B2FA82F25200EE
:103D700027EA0E0795402F4307605B1C0A6832FA5A
:103D800003F57FF46CAF0020F0BD000070B5002497
:103D90001F49204D4FF40046B0F5401F03D0B0F549
:103DA000400F1CD019E0086B1B4900F4401040F490
:103DB0004050401828D0B0F5801F0AD0B0F5001F41
:103DC0001BD101E0044608E000F082F828B12C463F
:103DD00003E000F085F800B13446204670BD086B62
:103DE0000E4900F4400040F4404040180CD0B0F5BB
:103DF000800FEED0B0F5000FE6D000F0BDFC00F073
:103E000091FC00F09DFCDDE700F0B6FCDAE7000075
:103E10000010024000127A0000D0EFFF0040BFFF08
:103E200070B5234D00244FF4004620B1102811D066
:103E3000122828D025E000F041F8012835D00228CA
:103E40001BD0032814D000F097FC00F06BFC00F0AE
:103E500085FC0BE000F032F81649401825D0B0F58B
:103E6000803F0AD0B0F5003F18D101E0044608E0D9
:103E700000F02EF828B12C4603E000F031F800B134
:103E80003446204670BD00F019F80B4940180CD09C
:103E9000B0F5802FF1D0B0F5002FE9D000F06CFC28
:103EA00000F040FC00F04CFCE0E700F065FCDDE7D2
:103EB00000127A000000FFEF0000FCED0349096BDF
:103EC00003228240114041EA006070470010024026
:103ED00002480068C0F34000704700000010024034
:103EE0000248006AC0F34000704700000010024022
:103EF00018B54FF47A710091C1680022C1F38011A6
:103F0000A9B9511EC160C1684FF0E023C1F380110F
:103F10000BE01969C1F3004111B10099491E0091EC
:103F2000C168009CC1F380111CB10029F1D010467A
:103F300018BD0122FBE770B504460126CA200D46D4
:103F40006062532060622046FFF7D2FF012816D03E
:103F50002868A16821F040010143A160A868216997
:103F60006FF30E0101432161A888216921F4FE014C
:103F700041EA004020616FF08000E0600026FF20F1
:103F80006062304670BD0000014908607047000063
:103F90007C00002070B5044600680D46012610F034
:103FA000010F43D1E9686868AA6908432969114388
:103FB00008432168254A114008432060A8686168C9
:103FC00021F44051014361606869A16821F44071A6
:103FD0000143A1601E48844201D1002008E01D4831
:103FE000844201D1102003E01B48844203D11220F7
:103FF000FFF716FF0CE01948844202D14FF440103D
:1040000004E01748844211D14FF44000FFF7BEFE90
:1040100060B1296851B1AA690026B2F5004F07D0F6
:1040200000EB5100B0FBF1F080B2E060304670BDB3
:10403000400000EB5100B0FBF1F081B24FF6F0729E
:1040400001EA0200C1F342010843EEE7F369FFEF22
:10405000003801400044004000480040004C00404F
:10406000005000402DE9F04F89B0002406940794D9
:10407000182168460894FCF7B3FB4FF40020FFF7C3
:104080003BFD4FF48000FFF737FD4FF40030FFF7A2
:1040900033FD4FF48020FFF72FFD4FF40010FFF7A2
:1040A0002BFD4FF48010FFF727FD4FF40000FFF7C2
:1040B00023FD374F44F28106BE62DFF8D8904FF4FB
:1040C0008078C9F82880DFF8D0A00C20CAF8180042
:1040D000324A0220032193684FF00C0BF02595FA29
:1040E000A5F5B5FA85F523F0F003A84003439360E6
:1040F00050142B4AD36890FAA0F5B5FA85F56D00F7
:1041000001FA05F5AB4390FAA0F5B5FA85F56D0017
:1041100004FA05F52B43D360136890FAA0F5B5FABD
:1041200085F56D00A9408B4390FAA0F1B1FA81F1B9
:10413000490004FA01F10B4313600125CDE906049F
:104140008DF820508DF821408DF8225006A8FFF7F9
:10415000DFFC0096CDE90154039469463846049487
:10416000FFF774FDCDF80080CDE901540394694652
:1041700048460494FFF76AFDCDE900B5CDE9025445
:10418000694650460494FFF761FD09B0BDE8F08F21
:104190000004004800100048001800480C000140CE
:1041A00000080048124810B51049016011494160EB
:1041B00000210122C0E90212016141618161C161F6
:1041C0000162FDF7BDFE08B172B6FEE700210848A6
:1041D000FDF720FE08B172B6FEE700210448FDF7A6
:1041E00044FE002801D072B6FEE710BD0054004026
:1041F000740100200E09002010B59AB00024179415
:10420000189415941694129413941C210BA81494CA
:10421000FCF7E6FA2C216846FCF7E2FA2A4829491D
:10422000C0E900147221C0E9024104614461846163
:10423000FEF704FD08B172B6FEE74FF4805015900A
:1042400015A92148FEF796FD08B172B6FEE71E4893
:10425000FEF793FF08B172B6FEE71294139412A909
:1042600019481494FEF73AFC08B172B6FEE76020D4
:104270000B902C200C9002200D900820CDE90E040C
:10428000109400220BA910481194FEF7E4FE08B127
:1042900072B6FEE70094019402940394049405948A
:1042A0000694079408940994694607480A94FEF70F
:1042B000C9FB08B172B6FEE70348FEF78FFE1AB0DD
:1042C00010BD0000002C0140C001002010B58EB0D0
:1042D0001C216846FCF784FA182107A8FCF780FA2D
:1042E0002C48C16941F48021C161C06900F480207B
:1042F0000D904FF48010FFF7FFFB4FF440700790D4
:104300000220089003200024CDE909040720CDE90C
:104310000B4007A92048FFF799FC20480068C0F32C
:104320000220011D072901D2002000E0C01E04FA6E
:1043300000F108011A4981F8000419498020233945
:10434000C1F800014FF46140CDE900040C20029453
:10435000CDE9034005940694124C69462046FFF7C8
:1043600019FE04F1080000BF50E8001F21F480612D
:1043700040E80012002AF7D1606820F490406060A5
:10438000A06820F02A00A060206840F001002060B2
:104390000EB010BD00100240000C00480CED00E013
:1043A00027E000E000480040FEE7FEE72DE9F84F77
:1043B000044640F68F7A40F2064B48F60F784FF0ED
:1043C0000009A4E1B0F8441011F00F0639D030F81C
:1043D000267039047ED530F8261001EA0A0141F032
:1043E000800120F8261006EB860004EBC00595F846
:1043F000740105F5B47500286DD0E87802286BD0FB
:104400002A78216831F8220048F68F73184048F264
:10441000C003184321F822002978206830F82120B1
:104420005204B0F8502002EB00037DD540F2024266
:1044300002EBC101595A8905890D009175D02A896D
:10444000C7E0C9062CD4018801EA080141F4004103
:104450000180206804F12805B0F850102A78014442
:1044600040F2024000EBC200085AC0F30900606449
:10447000E16B0844E06300212046FDF7B9FF94F8A2
:10448000240000289DD0A86900289AD194F824001F
:10449000216840F08000A1F84C0084F8249036E1B7
:1044A000018804F5B4750A051ED5B0F850102A78B5
:1044B00001440BEBC200085A04F52C71C0F3090348
:1044C000EB61EA88206800F022FF2168088800EA92
:1044D0000A0002E098E05FE06CE040F080000880B5
:1044E0002046FEF796FA12E10904D8D5018801EAC0
:1044F0000A0141F0800101802068B0F850100A18CC
:1045000029780BEBC100105A83059B0DEB6110D08D
:10451000696971B1EA88206800F0F9FEE9696869A3
:1045200008440021686101E04BE049E02046FDF7C6
:1045300060FF206801880905B1D4B0F85010084424
:10454000296900F2064051B13E2910D84A08C9072E
:1045500000D0521C4FF6FF7101EA82210FE0018862
:1045600021F4F8410180018841F4004107E04A0943
:10457000C90600D1521E4FF4004141EA8221018058
:10458000206801884BF68F72114081F4405148F247
:10459000800211430180BAE02068B0F850102B78F7
:1045A0000A180BEBC301515A8905890D009114D0EB
:1045B000EA880EE03A4629462046FDF71BFF0090A8
:1045C0000BE00BEBC101595A8905890D009104D00C
:1045D0006A896969009B00F09AFEE96900980844BD
:1045E000E8616969009808446861A86918B1296997
:1045F0000098814204D929782046FDF7FAFE03E0AD
:104600002946206800F036FC380674D5226806EB8F
:10461000860004EBC00132F8260000EA080040F4EE
:10462000004022F8260091F82B002831022845D0BE
:104630004A46C1F81890780620D5487810B101286C
:1046400012D05BE02068B0F8502010440A7800EBEC
:10465000C200B0F8022422F4F842A0F80224B0F814
:10466000022442F4004206E02068B0F850301844BA
:104670000B7800EBC300A0F802243FE04B782068E1
:1046800013B1012B11D039E0B0F8502010440A7852
:1046900000EBC200B0F8062422F4F842A0F8062489
:1046A000B0F8062442F4004205E0B0F85030184457
:1046B0000B7800EBC300A0F806241FE0F80522D415
:1046C0002068B0F8502013180A7840F2024000EB3E
:1046D000C200185A8A69C0F3090082420CD9121A22
:1046E0008A610BD04A6902444A61CA691044C861B0
:1046F000206800F0BFFB0AE0C1F818900978204656
:10470000FDF776FE03E03A462046FDF7E1FE20681D
:10471000B0F8441009043FF555AE0020BDE8F88F0D
:104720007047000004494968044A01F0F001090992
:10473000515CC8407047000000100240346300081C
:1047400004494968044A01F4E06102EB1121097847
:10475000C84070470010024044630008044949689B
:10476000044A01F4605102EBD1210978C840704736
:1047700000100240446300080648406810F00C0135
:10478000054805D0042903D0082901D100F006B856
:10479000704700000010024000127A000A49486881
:1047A0000A48CA6A496802F00F02521CB0FBF2F0D4
:1047B0004FF4701292FAA2F201F47011B2FA82F27E
:1047C000D140891C484370470010024000127A0013
:1047D0007047FDF77DBD00004A4810B5016821F023
:1047E000070141F002010160016801F0070102299F
:1047F000FAD1454C206840F480202060206840F4C5
:10480000803020602068C0F340400028FAD0206843
:1048100040F0010020602068C0F340000028FAD07A
:10482000206820F0F80040F080002060606A40F0CE
:1048300001006062606AC0F340000028FAD033488B
:10484000016841F480710160206A00F44070B0F5A5
:10485000007F0DD0206A40F480302062206A20F46E
:1048600080302062206A20F4407040F400702062A2
:10487000206A40F400402062606820F4761040F422
:10488000E8106060E06A20F00F00E062206840F00D
:10489000807020602068C0F340600028FAD0606813
:1048A00020F0F0006060606820F4E06040F4806018
:1048B0006060606820F460506060606820F0030011
:1048C00040F002006060606800F00C000828FAD137
:1048D0000F48FFF759FB0020FDF714FD08B172B631
:1048E000FEE7206B20F440202063206B20F01000B6
:1048F0002063206B20F480702063606820F48000C7
:10490000606010BD002002400010024000700040B6
:1049100000A24A040248016841F470010160704736
:1049200088ED00E0064841684A1C02D0491C4160FD
:1049300003E0002141608160C1600248FEF78BBA4C
:10494000600000200C0200202DE9F0470268274B90
:10495000274E284F284C294D4FF0804A984209D0C5
:10496000504507D0B04205D0B84203D0A04201D094
:10497000A84204D122F0700C4A6842EA0C02DFF827
:1049800080C0DFF88080DFF8809098420FD05045DB
:104990000DD0B0420BD0B84209D0A04207D060453C
:1049A00005D0404503D0484501D0A84203D122F4A8
:1049B0004076CA6832434E6922F080023243026078
:1049C0008A68C2620A688262984209D0A04207D00F
:1049D000604505D0404503D0484501D0A84201D1EB
:1049E0000969016301214161BDE8F087002C0140A4
:1049F0000004004000080040003401400050014025
:104A000000400140004401400048014010B501F061
:104A10001F030121046A99408C430462016A9A4091
:104A20001143016210BD10B501F01F030421046A97
:104A300099408C430462016A9A401143016210BD9F
:104A400010B5846842EA032224F47F440A432243D7
:104A5000826010BD826822F070020A4342F00701B2
:104A6000816070472DE9F047026A22F0010202627C
:104A7000056A436882691F4C25F0020522400C68D4
:104A800022F0030214438A681C4E2A431A4D1C4F1D
:104A9000DFF870C0DFF87090DFF870A0A84209D08E
:104AA000B04207D0B84205D0604503D0484501D098
:104AB000504506D122F00808CA6842EA080222F0EE
:104AC0000402A84209D0B04207D0B84205D06045E0
:104AD00003D0484501D0504505D14D6923F44073BA
:104AE0001D438B692B4343608461496841630262C3
:104AF000BDE8F0878FFFFEFF002C0140003401402D
:104B00000040014000440140004801400050014085
:104B1000F0B5026A22F010020262056A42688369F7
:104B20001C4C1E4E23400C6823F4407343EA0424BB
:104B300025F020038D681A4F43EA0513164DA8424D
:104B400003D0B04201D0B84207D1D1F80CC023F055
:104B5000800343EA0C1323F04003A8420CD0B04278
:104B60000AD0104DA84207D00F4DA84204D00F4DD7
:104B7000A84201D0B84207D14D6922F4406242EA0E
:104B800085028D6942EA85024260846149688163D9
:104B90000362F0BDFF8FFFFE002C01400034014096
:104BA00000500140004001400044014000480140E5
:104BB000F0B5026A22F480720262056A4268C36933
:104BC0001C4C1E4E23400C6823F003031C4325F4A9
:104BD00000738D681A4F43EA0523174DA84203D08E
:104BE000B04201D0B84207D1D1F80CC023F4006321
:104BF00043EA0C2323F48063A8420CD0B0420AD0CD
:104C0000104DA84207D0104DA84204D00F4DA84225
:104C100001D0B84207D14D6922F4405242EA051250
:104C20008D6942EA05124260C4614968C16303624A
:104C3000F0BD00008FFFFEFF002C0140003401405A
:104C40000050014000400140004401400048014044
:104C500030B5026A22F480520262046A4268C36973
:104C6000144D24F400542B400D6823F4407343EAA0
:104C700005238D6844EA05340F4DA8420ED00F4D30
:104C8000A8420BD00E4DA84208D00E4DA84205D028
:104C90000D4DA84202D00D4DA84204D14D6922F419
:104CA000804242EA85124260C3614968016404623D
:104CB00030BD0000FF8FFFFE002C0140003401409A
:104CC00000400140004401400048014000500140C4
:104CD00030B5026A22F480320262046A4268436D8F
:104CE000124D2B400D681D4324F400330C8943EA18
:104CF00004430F4CA0420ED00E4CA0420BD00E4CE1
:104D0000A04208D00D4CA04205D00D4CA04202D0CC
:104D10000C4CA04204D14C6922F4803242EA0422B5
:104D20004260456549688165036230BD8FFFFEFFC3
:104D3000002C01400034014000400140004401408B
:104D4000004801400050014030B5026A22F4801250
:104D50000262046A4268436D134D24F400142B4030
:104D60000D6843EA05230D8944EA05540F4DA84216
:104D70000ED00F4DA8420BD00E4DA84208D00E4DBC
:104D8000A84205D00D4DA84202D00D4DA84204D135
:104D90004D6922F4802242EA8522426043654968D7
:104DA000C165046230BD0000FF8FFFFE002C014092
:104DB00000340140004001400044014000480140EF
:104DC0000050014010B5036A046A24F00104046233
:104DD000846924F0F00444EA021423F00A020A432E
:104DE0008461026210BD10B5036A23F010030362F0
:104DF0008369046A23F4704343EA023224F0A00377
:104E000043EA01118261016210BD00000E4AD069BF
:104E1000C0F34010002806D00C488178462901D202
:104E200043780BB1908C7047928C094BD2B20D2A0B
:104E30005A5404D00A2A02D0491C817070470021BC
:104E400081700121417070470048004060000020DF
:104E500044050020012120F8401F002101808180AD
:104E600001820846704730F8401F21F43F4101801D
:104E7000002070472DE9F0470D464B78097B04462A
:104E80004FF0000948F68F7248F2800A4FF6FF771C
:104E90004FF40048012B09D000297DD0E878022882
:104EA0007BD001287AD00120BDE8F087AE6928695F
:104EB000864200D9064691B1E97802291ED0286AB7
:104EC000801B2862287834F820104906B4F8501066
:104ED000214401EBC0006ED5A0F80664F0E0B3B247
:104EE000EA882046696900F02DFAB4F85000297864
:104EF000204400EBC100A0F80264E7E0296A814287
:104F000075D9297834F82100104048F280121043F6
:104F100024F82100286A801B2862287834F82010A1
:104F20004906697876D511B1012921D027E0B4F876
:104F30005010214401EBC00000F206404EB13E2E5D
:104F40000FD87108F20700D0491C07EA81210180BF
:104F500015E0018821F4F8410180018841F4004105
:104F6000F5E77109F20600D1491E48EA8121EEE712
:104F7000B4F85020111901EBC000A0F806646A894A
:104F8000B3B22046696900F0DDF9686930446861B0
:104F90002969286A884202E0CCE0EBE055E102D9B9
:104FA000801B286202E00646C5F82090687818B198
:104FB000012824D02BE028E0B4F8500029782044C0
:104FC00000EBC10000F202404EB13E2E10D8710835
:104FD000F20700D0491C07EA8121018017E001880F
:104FE00021F4F8410180018841F40041F5E78CE0AB
:104FF0007109F20600D1491E48EA8121EDE7B4F8B3
:1050000050002978204400EBC100A0F802642A89EE
:1050100057E0FFE711B1012921D027E0B4F8501083
:10502000214401EBC00000F202404EB13E2E0FD8E9
:105030007108F20700D0491C07EA8121018015E0C0
:10504000018821F4F8410180018841F40041F5E72D
:105050007109F20600D1491E48EA8121EEE7B4F851
:105060005010214401EBC000A0F802642A89B3B2B9
:105070002046696900F066F9686930446861296909
:10508000286A884202D9801B286202E00646C5F8D9
:105090002090687810B1012830D011E0B4F85000A9
:1050A0002978204400EBC10000F20640BEB13E2E3C
:1050B0001DD87108F20700D0491C07EA8121018040
:1050C0006A89B3B22046696900F03CF9297834F85E
:1050D000210048F6BF72104080F0300008E10188DE
:1050E00021F4F8410180018841F40041E7E77109AA
:1050F000F20600D1491E48EA8121E0E7B4F85010D9
:105100000819297800EBC100E6E62A7834F8220075
:1051100048F68F63184040EA0A0024F82200B4F8E9
:1051200050002A78204400EBC2008BB2A0F8023471
:105130002A89C7E7A9692869814202D9091AA961A0
:10514000B4E00846C5F81890B0E0088820F4F840AC
:105150000880088840F400400AE03E2874D84208DD
:10516000C00700D0521C07EA822001E048EA8220F2
:105170000880B5E093B9B4F850002978204400EBDA
:10518000C100296900F2024069B13E2913D84B08D9
:10519000C90700D05B1C07EA83210180687888B1C9
:1051A000012832D03AE0018821F4F84101800188D9
:1051B00041F40041F1E74B09C90600D15B1E48EA02
:1051C0008321EAE7B4F850002978204400EBC100BD
:1051D000296900F2064049B13E290FD84B08C9079A
:1051E00000D05B1C07EA8321018017E0018821F4CD
:1051F000F8410180018841F40041F5E74B09C906F7
:1052000000D15B1E48EA8321EEE7B4F8501008197C
:10521000297800EBC100298AA0F80614E869A8B330
:10522000297834F82100430401D5430603D444F21D
:105230004003184254D134F82100104048F2C00213
:10524000104324F821004BE03CE0A9692869814221
:1052500002D9091AA96102E00846C5F818908BB96D
:10526000B4F850102A78214401EBC20101F2024146
:1052700068B13E2813D84208C30700D0521C07EA81
:1052800082220A80697889B1012921D028E00A8820
:1052900022F4F8420A800A8842F40042F1E7420907
:1052A000C30600D1521E48EA8222EAE7B4F8501041
:1052B0002A78214401EBC20101F2064100287FF463
:1052C0004CAF42E74209C0067FF450AF521E4DE793
:1052D000B4F8502011192A7801EBC201A1F8060494
:1052E000297834F821004BF68F72104080F440503A
:1052F00040EA0A0024F821000020D5E50148FDF726
:105300007FBA000058020020B0F84400704710B582
:1053100010445C0800F5806008D030F8022B01F8DA
:10532000012B120A01F8012B641EF6D1DA0701D015
:105330000088087010BD11B98021A0F84C10002021
:105340007047000010B55B1C10445B0800F58060DE
:105350000AD000BF11F8012B11F8014B42EA0422D8
:1053600020F8022B5B1EF5D110BDFEE703B40198B7
:105370004100009850EAC12018BF04204A0D18BF10
:1053800040F0010040F2FF72B2EB515F08BF40F005
:105390000200012808BF052002B0704700280DDB7D
:1053A00000F01F02012191404009800000F1E0203F
:1053B000C0F88011BFF34F8FBFF36F8F7047002885
:1053C00009DB00F01F02012191404009800000F13B
:1053D000E020C0F8001170470907090E002804DB1F
:1053E00000F1E02080F80014704700F00F0000F199
:1053F000E02080F8141D704730380A2801D20120BF
:1054000070470020704700000FB408B5DDE9173081
:10541000DDE91512009002A8FCF7F0FD002828D065
:1054200002A8FCF78AFD042810D01848406801281B
:1054300013D0022820D0154B202803F1080316486A
:1054400003F1250212A11ED01D330CE00F4B10A159
:10545000083303F12502104805E00C4B0CA10D3375
:1054600003F120020C48FAF73DFF28210A4800F01A
:10547000F7FD01B05DF814FB044B05A1143303F1F3
:1054800019020548EFE71333EDE70000080000209C
:1054900025732573000000004C0100200FB438B5BF
:1054A000DDE91930DDE9171200901B9C04A8FCF718
:1054B00037FE88B304A8FCF740FD1C490428486067
:1054C0000DD0012812D002281FD0202801F1080396
:1054D00001F12D02184816A11FD01D330CE0134B0B
:1054E00013A1083303F12502134805E00F4B10A167
:1054F0000D3303F120021048FAF7F4FE28210E487C
:1055000000F0AEFD38BC5DF814FB084B08A1143365
:1055100003F119020848EFE701E01333ECE72078C4
:105520000028EFD028212046EAE7000008000020EC
:1055300025732573000000004C010020017840789D
:10554000090101EB1010DFED150AC10A15D040F674
:10555000FF71401E8143080900EE100A01F00F00A0
:1055600001EE100AB8EE400AB8EE411A61EE200AC8
:1055700030EE200AB1EE400A7047010900F00F003A
:1055800001EE100A00EE101AB8EE411AB8EE400A09
:1055900061EE200A30EE200A704700000000803DD6
:1055A0002DE9F047ACB000212B9105462A912991B5
:1055B0008DF8AC102A22364914A8FBF7DFF8344CDA
:1055C000608DADF87A0054F82C0F1F906068209021
:1055D0002F490D2234318A4621A8FBF7CFF8607D90
:1055E0008DF89100A07D8DF89200A0692590E0696A
:1055F00026904FF002092BAA29AE4FF06408CDE99E
:105600001029244FCDE9128605EB45053C2237F8D9
:1056100015000F9018A96846FBF7B0F80DF1500C73
:105620009CE80F00FFF73AFF2A22194914A8FBF75C
:10563000A5F834F8020CADF87A0020681F90606875
:1056400020900D22514621A8FBF798F8607D8DF837
:105650009100A07D8DF89200A0692590E0692690C8
:105660002AAACDE91029CDE9128637F815000F9046
:105670003C2218A96846FBF781F814AC94E80F00A7
:10568000FFF7C2FE2AA8FFF759FF2CB0BDE8F0874C
:10569000740100208C000020F0B597B00E4607463C
:1056A000282102A8FBF79CF81E480078002836D174
:1056B0001D481E4900680A68821AB2F57A7F2ED901
:1056C000086028210CA8FBF78BF819A00068169039
:1056D00018480078012805D017A102A8FBF72AF87E
:1056E000002416E019A1F8E73D5D2846FFF758FFB2
:1056F00010EE100A00F002FDCDE900012A4602A9D1
:105700000CA8FAF7EFFD28210CA800F0A9FC641CF6
:10571000E4B2B442E8D3282116A800F0A1FC17B0E7
:10572000F0BD000060000020640000206800002040
:105730000A00000008000020546D7028256429200C
:105740003D20252E32662743207C2000746D702C6E
:105750002025642C20252E32660000002DE9F04F14
:10576000DFF8F4A08346CDB09AF800000F46002879
:105770006BD02020FFF712FE1F20FFF70FFE6421E1
:1057800001A8FBF72DF800263446642233491AA8F5
:105790004C96FAF7F3FF31496422643133A8FAF7E3
:1057A000EDFFDFF8BC9099F80000012807D12DA18A
:1057B0001AA8FAF7BFFF2FA133A8FAF7BBFF64209E
:1057C000009001234CAA18212E48FCF717FC9DF8E5
:1057D0003021002002F001082B4D02F0FE0109E00B
:1057E0001BF8004004EB440335F813308B4203D020
:1057F000401CC0B2B842F3D399F801004F4648B9F3
:1058000022A101A8FAF76EFD282101A800F028FCCA
:10581000787808B17E7010E004EB4400B8F1000F16
:1058200005EB400014D08278234633A901A8FAF78B
:1058300059FD642101A800F013FC8AF800602020C3
:10584000FFF7BDFD1F20FFF7BAFD4DB0BDE8F08F9B
:10585000C27823461AA9E9E760000020F461000835
:1058600008000020616C72746578636565642C20A3
:1058700025640A00616C727472657475726E2C20F6
:1058800025640A00740100208C000020416C6572C0
:105890007420616464723A2025780A0010B50028EB
:1058A0000FD0084C207800280BD0084A06A308A186
:1058B0001046FAF717FD4621044800F0D1FB0020FE
:1058C000207010BD610000200D0A0000440500207A
:1058D00025732573000000002DE9F0410E460746B0
:1058E000002408E03D5D284600F00AF8284600F054
:1058F0006FF8641CE4B2B442F4D3BDE8F081000058
:1059000070B5B2B00446282127A8FAF769FF002035
:10591000254E319004EB4405012006EB45018DF83E
:10592000C4000879224640F0020008718DF8C500D5
:105930001EA127A8FAF7D6FC2A22244914A8FAF7B0
:105940001DFF224C608DADF87A00E06A1F90206B3D
:1059500020900D2204F1340121A8FAF70FFF94F8EA
:1059600041008DF8910094F842008DF89200606C2F
:105970002590A06C26900DF1400C27AB4FF42F72B0
:10598000022131A88CE80F0036F815000F903C2258
:1059900018A96846FAF7F2FE14AD95E80F00FFF774
:1059A0007DFD32B070BD00008C0000206E546D7023
:1059B000722825642920495420696E697420636F18
:1059C0006D706C657465642E0D0A00007401002012
:1059D0002DE9F04FBFB0804600202790282128A84D
:1059E000FAF7FEFE282132A8FAF7FAFE424F08EB3A
:1059F0004805022607EB45098DF89C6099F80230AE
:105A00008DF89D3042463DA128A8FAF76BFC2A226A
:105A1000434914A8FAF7B2FE414C608DADF87A0004
:105A200054F82C0F1F90606820903D490D223431AE
:105A300021A83D91FAF7A2FE607D8DF89100A07D2E
:105A40008DF89200A0692590E069269028AA0DF1B2
:105A50009C0B10A813924FF42F7A594680E8420409
:105A600037F815000F903C2218A96846FAF786FE11
:105A70000DF1500C9CE80F00FFF710FD03208DF88E
:105A80009C0099F803308DF89D30424625A132A83C
:105A9000FAF728FC2A22224914A8FAF76FFE34F8F4
:105AA000020CADF87A0020681F90606820900D22EB
:105AB00021A83D99FAF762FE607D8DF89100A07DE6
:105AC0008DF89200A0692590E069269032AACDE970
:105AD00012A2CDE910B637F815000F903C2218A994
